:100000000C946F010C9497010C9497010C94970138
:100010000C9497010C9497010C9497010C94970100
:100020000C9497010C9497010C94D0080C945709E8
:100030000C9497010C9497010C9497010C949701E0
:100040000C9497010C9497010C9497010C949701D0
:100050000C9497010C9497010C9497010C94D20185
:100060000C9497010C94C6040C9414050C949701FD
:100070000C9497010C9497010C9497010C949701A0
:100080000C9497010C9497010C9497010C94970190
:100090000C9497010C9497010C9497010C94970180
:1000A0000C9497010C9497010C94970100000000A8
:1000B000240027002A002D00300000000000250049
:1000C00028002B002E003100000000002300260035
:1000D00029002C002F000404040404030405020278
:1000E00002020403020202020606060606060404D1
:1000F00002020204040802011040804010204080E7
:10010000408008020401804020100201108010206D
:1001100040400000000200080E0000030401000B34
:100120000000070605040100080A0B0C0D09080B66
:1001300000020202010009040000010202000005A1
:1001400024001001052401010104240206052406EF
:1001500000010705810310004009040100020A00A4
:10016000000007050202400000070583024000006E
:1001700004030904220355005300420020004900F3
:100180004F00200042006F006100720064002000F8
:10019000200020002000180353007000610072004E
:1001A0006B00460075006E00200020002000120148
:1001B0000002000000404F1B01F10001010200019C
:1001C00012010002020000404F1B01F10001010278
:1001D000000100C18081C105010902A1010901A13D
:1001E00000850105091901290315002501950375ED
:1001F0000181029501750581030501093009310965
:10020000381581257F750895038106C0C005010951
:1002100006A1018502050719E029E71500250175EA
:1002200001950881029501750881039506750815E9
:100230000025650507190029658100C00904020031
:1002400001030000000921010100012265000705EA
:10025000840340000100000000000000002A2B2859
:10026000000000000000000000000000000000008E
:1002700000000000002C9EB4A0A1A2A434A6A7A553
:10028000AE362D3738271E1F20212223242526B3E2
:1002900033B62EB7B89F8485868788898A8B8C8DE4
:1002A0008E8F909192939495969798999A9B9C9DF6
:1002B0002F3130A3AD350405060708090A0B0C0DD4
:1002C0000E0F101112131415161718191A1B1C1DD6
:1002D000AFB1B0B50000FA0377060C08DA0A1124B2
:1002E0001FBECFEFDAE0DEBFCDBF11E0A0E0B1E08E
:1002F000EAE1F8E102C005900D92A035B107D9F707
:1003000012E0A0E5B1E001C01D92AB36B107E1F704
:1003100012E0CEEDD2E004C02297FE010E94070C4D
:10032000C63DD107C9F70E94CD060C940B0C0C9466
:1003300000008DE991E060E071E00E94460783E3F0
:1003400092E06CE071E00E9446078091130160E04A
:100350000E947C035D9A68EE73E080E090E00E946A
:1003600026028091130161E00E947C035D9868EE93
:1003700073E080E090E00E942602089580911301CE
:1003800061E00E94DF028DE991E060E875E20E9481
:10039000AF0383E392E040E855E260E070E00E9442
:1003A0004F0508951F920F920FB60F9211242F93AD
:1003B0003F934F935F936F937F938F939F93AF93ED
:1003C000BF932091540130915501409156015091B5
:1003D000570170915801DA01C9010296A11DB11DA2
:1003E000672F6A5F6D3730F06D57DA01C9010396E8
:1003F000A11DB11D60935801809354019093550144
:10040000A0935601B09357018091500190915101F2
:10041000A0915201B09153010196A11DB11D80938D
:10042000500190935101A0935201B0935301BF9199
:10043000AF919F918F917F916F915F914F913F917C
:100440002F910F900FBE0F901F9018959B01AC013C
:100450007FB7F8948091500190915101A091520181
:10046000B091530166B5A89B05C06F3F19F0019686
:10047000A11DB11D7FBFBA2FA92F982F8827860FE6
:10048000911DA11DB11D63E0880F991FAA1FBB1FFD
:100490006A95D1F7BC012DC0FFB7F8948091500147
:1004A00090915101A0915201B0915301E6B5A89BE2
:1004B00005C0EF3F19F00196A11DB11DFFBFBA2F76
:1004C000A92F982F88278E0F911DA11DB11DE3E044
:1004D000880F991FAA1FBB1FEA95D1F7861B970BA0
:1004E000885E9340C8F221503040404050406851EF
:1004F0007C4F211531054105510571F60895789419
:1005000084B5826084BD84B5816084BD85B5826018
:1005100085BD85B5816085BDEEE6F0E080818160B6
:100520008083E1E8F0E010828081826080838081B6
:1005300081608083E0E8F0E0808181608083E1EB8E
:10054000F0E0808184608083E0EBF0E08081816076
:100550008083E1E9F0E08081826080838081816036
:100560008083E0E9F0E0808181608083E1ECF0E06D
:1005700080818460808380818260808380818160CB
:100580008083E3ECF0E0808181608083E0ECF0E048
:10059000808182608083E2ECF0E0808181608083F2
:1005A000EAE7F0E0808184608083808182608083DC
:1005B0008081816080838081806880830895CF936B
:1005C000DF93482F50E0CA018C509F4FFC013491BB
:1005D0004A525F4FFA018491882369F190E0880FB5
:1005E000991FFC01E455FF4FA591B491FC01E6541D
:1005F000FF4FC591D491662351F42FB7F8948C9195
:10060000932F909589238C93888189230BC0623026
:1006100061F42FB7F8948C91932F909589238C9344
:100620008881832B88832FBF06C09FB7F8948C9155
:10063000832B8C939FBFDF91CF9108958730C1F1B9
:10064000883080F48330F9F0843030F4813029F13F
:10065000823009F050C024C08430C9F0863009F0DF
:100660004AC022C08A3091F18B3030F4883031F1A9
:10067000893009F040C026C08C3091F18C3060F197
:100680008E30C9F533C0809180008F7703C0809190
:1006900080008F7D80938000089584B58F7702C09D
:1006A00084B58F7D84BD08958091B0008F7703C09D
:1006B0008091B0008F7D8093B0000895809190006C
:1006C0008F7707C0809190008F7D03C0809190004C
:1006D000877F8093900008958091C0008F7703C03A
:1006E0008091C0008F7D8093C00008958091C200EA
:1006F000877F8093C2000895FF920F931F93F62E79
:10070000482F50E0CA018E5E9E4FFC012491CA0121
:100710008C509F4FFC0114914A525F4FFA01049193
:100720000023C9F0222319F0822F0E941E03E02F1C
:10073000F0E0EE0FFF1FE654FF4FA591B4919FB775
:10074000F894FF2021F48C911095812302C08C91A4
:10075000812B8C939FBF1F910F91FF900895089557
:100760002091990130919A0180919B0190919C0177
:10077000281B390B2F733070C901089520919901FE
:1007800030919A0180919B0190919C012817390723
:1007900019F42FEF3FEF09C0E0919B01F0919C010C
:1007A000E75AFE4F8081282F30E0C901089520913B
:1007B000990130919A0180919B0190919C01281799
:1007C000390719F42FEF3FEF13C0E0919B01F0912F
:1007D0009C01E75AFE4F208180919B0190919C01E2
:1007E00001968F73907090939C0180939B0130E0F1
:1007F000C90108951092A00110929F0188EE93E024
:10080000A0E0B0E08093A1019093A201A093A30186
:10081000B093A40183E291E090939E0180939D01A7
:1008200008950F931F93DF93CF930F92CDB7DEB749
:100830008C01698380911C01882369F083E0BE01EB
:100840006F5F7F4F41E050E00E942B081816190699
:1008500014F49C0107C081E090E0F8019383828347
:1008600020E030E0C9010F90CF91DF911F910F91EF
:10087000089583E00E9402080895CF93DF9312C089
:1008800082E00E948D072FEF8F3F9207C9F0E09121
:100890009901F0919A01E75AFE4F8083D0939A0113
:1008A000C0939901C0919901D0919A012196CF737B
:1008B000D07080919B0190919C01C817D90701F7D6
:1008C000DF91CF910895FC0180818E5F808380E865
:1008D0006EE271E042E450E00E94A6070895FC0138
:1008E00081819081913A59F4813209F04CC080E0C5
:1008F00065E171E047E050E00E94A60742C09132F6
:1009000009F041C0803239F485E191E067E070E0A0
:100910000E94EA0736C0823209F035C08281809396
:100920001C018091150190911601A0911701B091C1
:100930001801805B9440A040B04019F580911C01E3
:1009400080FD12C087E797E7909301088093000825
:100950002BE088E190E00FB6F894A89580936000B2
:100960000FBE209360000DC088E10FB6F89480930D
:100970006000109260000FBEA895109201081092BE
:10098000000881E0089580E0089508951F920F9275
:100990000FB60F9211242F933F934F938F939F93F2
:1009A000EF93FF938091C80082FD1DC04091CE005F
:1009B0002091EB013091EC012F5F3F4F2F7330708E
:1009C0008091ED019091EE012817390771F0E091C7
:1009D000EB01F091EC01E555FE4F40833093EC01C3
:1009E0002093EB0102C08091CE00FF91EF919F9187
:1009F0008F914F913F912F910F900FBE0F901F90AD
:100A00001895E0913F02F0914002E05CFF4F819128
:100A1000919120813181821B930B8F739070892B70
:100A200011F00E94C50408951F920F920FB60F9205
:100A300011242F933F938F939F93EF93FF932091D4
:100A40002F023091300280913102909132022817AA
:100A5000390731F48091C9008F7D8093C90014C09B
:100A6000E0913102F0913202E151FE4F20818091FC
:100A700031029091320201968F73907090933202FE
:100A8000809331022093CE00FF91EF919F918F913F
:100A90003F912F910F900FBE0F901F901895AF921E
:100AA000BF92DF92EF92FF920F931F93CF93DF934A
:100AB000EC017A018B01DD24D39491E0A92EB12CB5
:100AC000EC89FD89DD2069F0C50108A002C0880F0E
:100AD000991F0A94E2F7808360E874E88EE190E061
:100AE00005C0108260E472E48FE090E0A8019701F5
:100AF0000E94E30B215030404040504056954795AE
:100B00003795279580E12030380720F0DD2011F05F
:100B1000DD24D6CFE889F9893083EA89FB892083EF
:100B200019A2EE89FF89408121E030E0C9010C8CD7
:100B300002C0880F991F0A94E2F7482B4083EE8980
:100B4000FF894081C9010D8C02C0880F991F0A944A
:100B5000E2F7482B4083EE89FF894081C9010E8C62
:100B600002C0880F991F0A94E2F7482B4083EE8950
:100B7000FF8980810F8C02C0220F331F0A94E2F795
:100B8000209528232083DF91CF911F910F91FF9013
:100B9000EF90DF90BF90AF900895DC011C96ED912F
:100BA000FC911D97E05CFF4F2191319180819181F3
:100BB000281B390B2F733070C9010895DC011C9676
:100BC000ED91FC911D97E05CFF4F20813181E05455
:100BD000F040DF01AE5BBF4F8D919C9111972817BC
:100BE000390719F42FEF3FEF07C08D919C91E80F63
:100BF000F91F8081282F30E0C9010895DC011C967F
:100C0000ED91FC911D97E05CFF4F20813181E05414
:100C1000F040DF01AE5BBF4F8D919C91119728177B
:100C2000390719F42FEF3FEF10C08D919C91119768
:100C3000E80FF91F20818D919C91119701968F7378
:100C4000907011969C938E9330E0C9010895DC0159
:100C500091968C919197882339F05496ED91FC915F
:100C60005597808186FFF9CF91961C920895CF9376
:100C7000DF93EC01EE85FF85E05CFF4F2081318141
:100C8000E054F0402F5F3F4F2F733070DF01AE5BB9
:100C9000BF4F8D919C91119728173907D1F3E05CD4
:100CA000FF4F80819181E054F040E80FF91F60838D
:100CB000EE85FF85E05CFF4F31832083EE89FF895D
:100CC000208181E090E00F8C02C0880F991F0A9468
:100CD000E2F7282B208381E089A3EC89FD898081BC
:100CE0008064808381E090E0DF91CF91089510923D
:100CF00036021092350288EE93E0A0E0B0E08093D7
:100D0000370290933802A0933902B0933A0285E3F8
:100D100091E090933402809333028BEA91E09093B8
:100D2000400280933F028FEE91E0909342028093C5
:100D300041028DEC90E090934402809343028CEC4E
:100D400090E0909346028093450288EC90E0909367
:100D500048028093470289EC90E090934A02809386
:100D600049028AEC90E090934C0280934B028EEC07
:100D700090E090934E0280934D0284E080934F0266
:100D800083E08093500287E08093510285E0809356
:100D9000520281E0809353020895CF93DF930E9423
:100DA0007F028DE592E00E940D080E94BE01C1E025
:100DB000D5E00E9499012097E1F30E940105F9CF47
:100DC000CF92DF92EF92FF920F931F93CF93DF9317
:100DD0007C016B018A01C0E0D0E00FC0D6016D91AB
:100DE0006D01D701ED91FC910190F081E02DC701DB
:100DF0000995C80FD91F015010400115110571F751
:100E0000CE01DF91CF911F910F91FF90EF90DF9076
:100E1000CF900895EF92FF920F931F938C01DC0106
:100E2000ED91FC910190F081E02D6DE009957C0140
:100E3000D801ED91FC910190F081E02DC8016AE0AC
:100E400009959C012E0D3F1DC9011F910F91FF9027
:100E5000EF900895CF93DF93EC016115710519F4BC
:100E600020E030E00FC0DB010D900020E9F7119782
:100E7000A61BB70BE881F9810280F381E02DAD015B
:100E800009959C01C901DF91CF910895EF92FF92DE
:100E90000F931F937C010E942A078C01C7010E94B7
:100EA0000A07080F191FC8011F910F91FF90EF90BB
:100EB0000895282F809157028823C1F057FF1AC048
:100EC00015C02898909356028091F1008193E21703
:100ED000F307B9F74115510539F08091F2008823E5
:100EE00019F48BE68093E800AFBF02C04FEF5FEFCD
:100EF000CA010895AFB7F89427702093E900809154
:100F0000F200282F30E0241735070CF4A901FB016B
:100F10009B01240F311D94E6DACFDF93CF930F921C
:100F2000CDB7DEB7BE016F5F7F4F41E050E00E945A
:100F30005907019719F02FEF3FEF03C08981282F40
:100F400030E0C9010F90CF91DF910895FF920F9388
:100F50001F93F82E142F052F40915A0250915B02D7
:100F6000212F302FC901DC01FB016EEF29C0F7FEF4
:100F700002C0949101C09081209158023091590291
:100F800024173507ACF48091E8008570E1F3809177
:100F9000E80082FF03C02FEF3FEF17C09093F100EE
:100FA000C90101968F739070892B11F46093E8004A
:100FB0002F5F3F4F3093590220935802119731967B
:100FC0001097A9F6812F902F9C01C9011F910F91B5
:100FD000FF9008959C018091E80082FFFCCFF90109
:100FE000260F311D03C08091F1008193E217F307B2
:100FF000D1F7289884E6809356028BEF8093E8001F
:10100000CB0108958093E9008091F200882319F0C4
:101010008AE38093E800089508951092570281E0D2
:101020008093D70080EA8093D80082E089BD09B41C
:1010300000FEFDCF61E070E080E090E00E942602BB
:1010400080E98093D8008CE08093E2001092E00069
:10105000559A209A08955F926F927F928F929F92F5
:10106000AF92BF92CF92DF92EF92FF920F931F93B6
:10107000CF93DF93E82E842E752E8091570288231C
:1010800071F18B01242F352FC901EC017AEFF72E76
:1010900067E0962E9E2050E4552E8E2D90E040E283
:1010A000A42EB12CA822B9223AE3632E20E4C22E4A
:1010B000D12CC822D92258C09FB7F8949092E90049
:1010C0008091E80085FD02C020E004C08091F2001C
:1010D000252D281B9FBF222361F4FA9419F42FEFCA
:1010E0003FEF4DC061E070E080E090E00E9426029A
:1010F0003BC0822F90E0C817D9070CF42C2FC21BDD
:10110000D1094FB7F8949092E900A114B10421F4E9
:1011100006C01092F10021502223D9F719C0E7FC34
:1011200003C0F801922F10C0C801322F06C0FC0185
:101130000196E491E093F10031503323C1F706C0EA
:1011400081918093F10091509923D1F7020F111DE5
:101150008091E80085FF05C0209729F4C114D104CF
:1011600011F06092E8004FBF209709F0A5CF5D987D
:1011700084E680935502282D372DC9019C01C901B1
:10118000DF91CF911F910F91FF90EF90DF90CF9063
:10119000BF90AF909F908F907F906F905F900895D9
:1011A0001F920F920FB60F9211242F933F934F93DC
:1011B0005F936F937F938F939F93AF93BF93EF93BF
:1011C000FF938091E1001092E100982F83FF0FC000
:1011D0001092E90081E08093EB001092EC0082E332
:1011E0008093ED001092570288E08093F00092FF08
:1011F00034C083E08093E9008091F200882319F0E5
:101200008AE38093E8008FB7F89492E09093E90026
:101210009091F2008FBF992321F08DE991E00E9417
:101220003D0480915502882351F0809155028150F0
:101230008093550280915502882309F45D9A80912C
:101240005602882351F080915602815080935602B5
:1012500080915602882309F4289AFF91EF91BF915B
:10126000AF919F918F917F916F915F914F913F913E
:101270002F910F900FBE0F901F9018950F931F93F3
:10128000DF93CF930F92CDB7DEB719828E010F5F38
:101290001F4FC8010E946304C8010E94D70B8981B7
:1012A00090E00F90CF91DF911F910F9108951F92C1
:1012B0000F920FB60F921124EF92FF921F932F936C
:1012C0003F934F935F936F937F938F939F93AF93CE
:1012D000BF93EF93FF93DF93CF93CDB7DEB76197C3
:1012E000DEBFCDBF1092E9008091E80083FF0FC1FF
:1012F000FE0131969E01275F3F4F03C08091F100B0
:101300008193E217F307D1F7289884E68093560279
:1013100082EF8093E800998197FF05C08091E800F3
:1013200080FFFCCF03C08EEF8093E800292F30E0D0
:10133000C90180769070892B09F0C2C08A81882308
:1013400029F41092F1001092F100D6C0813009F416
:10135000D3C0833009F4D0C0853049F48091E800CF
:1013600080FFFCCF8B8180688093E300C5C086300E
:1013700009F07CC01C81EF80F8841230C1F5109216
:10138000E900109259021092580210925B021092DA
:101390005A020E943E0999E0FE013996DF01292F89
:1013A0001D922A95E9F799871A8791E09E8790E820
:1013B000988B9AEF998B2091580230915902275FB0
:1013C0003F4F3C872B878D871092E900109259027E
:1013D00010925802F0925B02E0925A0280E0BF0144
:1013E00049E050E00E94A6070E943E0985C0109285
:1013F000E9001092590210925802F0925B02E092BA
:101400005A02123241F482E290E00E94CF0B892B03
:1014100009F476C071C0113079F488E0E816F1045F
:1014200019F481E080935C0280915C02882309F0CA
:101430006BC0EEEAF1E013C0133009F061C08B819C
:10144000882319F4E0E7F1E00AC0823019F4E4E7F8
:10145000F1E005C0813009F053C0E6E9F1E04491C4
:1014600080E8BF0150E00E94A60746C0873009F41B
:1014700047C0883021F481E08093F1003DC089307D
:10148000D9F523703070232BD9F5E3EDF1E091E02D
:1014900031E026E39093E9003093EB008491809350
:1014A000EC002093ED009F5F3196953099F78EE721
:1014B0008093EA001092EA008B81809357021CC04F
:1014C0008F8198851092E90010925902109258026B
:1014D00090935B0280935A028D81882329F4CE0178
:1014E00001960E946F0406C0823051F4CE0101962D
:1014F0000E94A00A882321F08EEF8093E80007C0A5
:1015000081E28093EB0003C0E0ECF1E0A8CF6196AC
:10151000DEBFCDBFCF91DF91FF91EF91BF91AF9132
:101520009F918F917F916F915F914F913F912F91FB
:101530001F91FF90EF900F900FBE0F901F90189586
:10154000FC0191818081813A31F4913089F080E011
:10155000933089F40DC0813269F49B3021F482818B
:1015600080931D0105C09A3029F4828180931E0169
:1015700081E0089580E00895EF92FF920F931F930A
:101580008C01E62EDC01ED91FC910480F581E02DCB
:101590000995F82ED801ED91FC910680F781E02D98
:1015A000C8016E2D09958F2D90E01F910F91FF902E
:1015B000EF90089510925E02109262021092610202
:1015C00085E491E09093600280935F020895EF922A
:1015D000FF920F931F93DF93CF930F92CDB7DEB798
:1015E00089838B017A0184E0BE016F5F7F4F41E008
:1015F00050E00E942B0884E4B801A7010E942B0848
:101600000F90CF91DF911F910F91FF90EF90089570
:1016100082E048E050E00E94E70A0895FC0116824B
:101620001782108611861286138614823496BF01A3
:101630000E94080B0895DC01683810F0685829C032
:10164000E62FF0E067FF13C0E058F04081E090E043
:1016500002C0880F991FEA95E2F7809514962C91A5
:101660001497282314962C93149760E012C0EB5A19
:10167000FD4F6491662319F420E030E01DC067FF40
:1016800008C014968C9114978D7F14968C931497A0
:101690006F77FD0190E0662321F08681861709F4BB
:1016A00016829F5F31969630B1F7CD011496BD0139
:1016B0000E94080B21E030E0C9010895CF93DF9329
:1016C000DC01683810F0685825C0E62FF0E067FFAD
:1016D00012C0E058F04081E090E002C0880F991FEE
:1016E000EA95E2F714962C911497282B14962C93D4
:1016F000149760E00FC0EB5AFD4F64916623D9F157
:1017000067FF08C014968C911497826014968C938E
:1017100014976F7716968C9116978617A9F11796DE
:101720008C911797861781F118968C9118978617C8
:1017300059F119968C911997861731F11A968C9157
:101740001A97861709F11B968C911B978617E1F063
:10175000ED01E0E0F0E09E2F8E81882321F4EA0F76
:10176000FB1F668306C09F5F31962196E630F10528
:1017700091F7963049F481E090E013969C938E9314
:10178000129720E030E007C0CD011496BD010E9401
:10179000080B21E030E0C901DF91CF91089580E886
:1017A00067ED71E045E650E00E94A6070895FC0150
:1017B00080818F5F808380E86CE372E049E150E0D4
:1017C0000E94A6070895A1E21A2EAA1BBB1BFD01C9
:1017D0000DC0AA1FBB1FEE1FFF1FA217B307E40710
:1017E000F50720F0A21BB30BE40BF50B661F771F68
:1017F000881F991F1A9469F7609570958095909548
:101800009B01AC01BD01CF010895EE0FFF1F0590B4
:0A181000F491E02D0994F894FFCF45
:10181A0048656C6C6F20776F726C640048656C6CFD
:10182A006F2100110000E10000000000000101002A
:10183A000000001104E006B003D703BE0339043DDB
:10184A0004000000003706E006CD05FE05DE052788
:10185A000600000000BC0AE0065E0B1B0B0E0B0024
:00000001FF
